:020000040800F2
:10000000384E002071020008C71000082D100008AB
:10001000C5100008A1030008071500080000000033
:10002000000000000000000000000000B101000816
:10003000A3030008000000000D020008E5100008FE
:100040008B0200088B0200088B0200088B0200085C
:100050008B0200088B0200088B0200088B0200084C
:100060008B0200088B0200088B0200088B0200083C
:100070008B0200088B0200088B0200088B0200082C
:100080008B0200088B0200088B02000800000000B1
:100090000000000000000000000000008B020008CB
:1000A0008B020008A11100088B0200088B020008D7
:1000B0008B0200088B0200088B0200088B020008EC
:1000C0008B0200088B0200088B0200088B020008DC
:1000D0008B0200088B0200088B0200080000000061
:1000E0008B0200088B0200088B0200080000000051
:1000F0000000000000000000000000008B0200086B
:10010000000000008B0200088B0200088B02000830
:1001100000000000000000000000000000000000DF
:100120008B0200088B0200088B0200088B0200087B
:100130008B0200080000000000000000000000002A
:100140000000000000000000000000008B0200081A
:100150008B0200088B0200088B0200088B0200084B
:100160008B0200088B020008000000000000000065
:10017000000000000000000000000000000000007F
:10018000000000008B0200080000000000000000DA
:100190008B0200088B020008DFF810D000F0EEF8A8
:1001A0000048004705220008AFF30080384E0020C9
:1001B0002C4B19680868B0E8F04F80F30988BFF34A
:1001C0006F8F4FF0000080F311887047000000002F
:1001D00008480068006880F308884FF0000080F34A
:1001E000148862B661B6BFF34F8FBFF36F8F00DF25
:1001F00000BF00BF08ED00E0DFF80C00016841F42B
:1002000070010160704700BF88ED00E0EFF30980E6
:10021000BFF36F8F134B1A681EF0100F08BF20ED4D
:10022000108A20E9F04F106009B44FF0500080F3BD
:100230001188BFF34F8FBFF36F8F02F09BFF4FF01A
:10024000000080F3118809BC19680868B0E8F04F15
:100250001EF0100F08BFB0EC108A80F30988BFF3BE
:100260006F8F70474C000020EFF30580704700004F
:100270000648804706480047FEE7FEE7FEE7FEE740
:10028000FEE7FEE7FEE7FEE7FEE7FEE79111000866
:10029000990100082DE9F05F0546002092469B4633
:1002A00088460646814640241BE02846414647468C
:1002B000224600F053F853465A46C01A914110D3D3
:1002C00011461846224600F03AF82D1A67EB01084D
:1002D0004F4622460120002100F031F817EB0009BB
:1002E0004E41201EA4F10104DFDC484631462A4677
:1002F0004346BDE8F09F40EA01039B0703D009E0B5
:1003000008C9121F08C0042AFAD203E011F8013B01
:1003100000F8013B521EF9D27047D2B201E000F85A
:10032000012B491EFBD270470022F6E710B5134699
:100330000A4604461946FFF7F0FF204610BD202A62
:1003400004DB203A00FA02F1002070479140C2F12C
:10035000200320FA03F3194390407047202A04DB5E
:10036000203A21FA02F00021704721FA02F3D0402E
:10037000C2F120029140084319467047064C074DD0
:1003800006E0E06840F0010394E807009847103465
:10039000AC42F6D3FFF704FF583C0008783C000855
:1003A000FEE7704772B6FEE72DE9F84FDFF8B8A117
:1003B0000022012403254FF00F090AF1040BAAF1D2
:1003C000040E00BF0B6804FA02F63340B34273D147
:1003D0000F7907F00307012F01D0022F16D187688C
:1003E0004FEA420805FA08FC27EA0C07D1F80CC0CE
:1003F0000CFA08FC4CEA070CC0F808C04768B74381
:100400000E79C6F3001696403E4346600E79F643D9
:10041000B6070DD0C768560005FA06FC27EA0C0798
:10042000D1F808C00CFA06FC4CEA070CC0F80CC066
:100430000E7906F00306022E10D1D60800EB8608CE
:10044000D8F8206057074FEAD76C09FA0CF7BE437B
:100450000F6907FA0CF73743C8F8207006684FEAAF
:10046000420C05FA0CF7BE430F7907F0030707FAB1
:100470000CF7374307604E6816F4403F6DD03B4E93
:10048000376847F480473760366822F0030706F480
:1004900080460096364E07EB060CDCF80868970796
:1004A0003F0F09FA07F826EA0806DFF8C88040453A
:1004B00003D14FF000081EE04FE0DFF8BC8040455C
:1004C00002D14FF0010816E0DFF8B080404502D1BC
:1004D0004FF002080FE0DFF8A880404502D14FF04E
:1004E000030808E0DFF89C80404502D14FF0040883
:1004F00001E04FF0070808FA07F848EA0608CCF8C8
:100500000888DAF800605746D1F804C09E435FEAD5
:10051000CC2C00D51E433E60DBF800605F46D1F86E
:1005200004C09E435FEA8C2C00D51E433E60DEF87B
:1005300000607746D1F804C09E435FEA8C3C00D54A
:100540001E433E60084F083F3E68D1F804C09E43FA
:100550005FEACC3C00D51E433E60521C102AFFF4DB
:1005600031AFBDE8F88F0000083C0140443802403C
:100570000030014000000240000402400008024038
:10058000000C0240001002400148806870470000E3
:100590003C00002002488168027811448160704765
:1005A0003C0000200B4810B5016841F40071016067
:1005B000016841F480610160016841F4807101606B
:1005C000032000F099F80F2000F006F800F04AF838
:1005D000002010BD003C024030B505461C4887B0E5
:1005E0000024016841F001010160006806A900F0E3
:1005F0000100009001A800F02BF900F059F915490D
:10060000154AB0FBF1F11548491E026040F2E7328D
:10061000C0E90324C0E90114846100F043FB040035
:1006200012D10E4800F06CFB04000DD1192000F02F
:1006300035F8102D07D200222946192000F03CF889
:100640000748056000E0012407B0204630BD0000E7
:100650004438024040420F000000014018010020D1
:10066000400000200C4882B0016841F480410160E4
:10067000006800F4804000900748001F016841F0C6
:10068000805101600068002200F0805000900F212E
:10069000901E02B000F010B844380240002809DB78
:1006A00000F01F02012191404009800000F1E0208C
:1006B000C0F8001170470000F0B40E4B1B680C46E8
:1006C000C3F30223C3F10705042D00D90425191D26
:1006D000072901D2002300E0DB1E012606FA05F1FE
:1006E000491E214099409E40761E16403143F0BC81
:1006F00000F01ABF0CED00E0064900F007020868A0
:100700004FF6FF03184040EA0220034A10430860F6
:10071000704700000CED00E00000FA052DE9F047FD
:100720000E46050065D0DFF81481D8F80000F7B256
:1007300000F00700B04207D288F80070D8F8000037
:1007400000F00700B04254D128683D4C810712D513
:10075000400703D5206840F4E05020602878000767
:1007600003D5206840F4604020602068A96820F02C
:10077000F000084320602878C0072DD03049686811
:100780000839012812D0022813D0032811D0096893
:10079000890700292DDA216821F003010143216036
:1007A000FFF7F2FE814641F2883A0EE009688903BC
:1007B000EFE709688901ECE7FFF7E6FEA0EB090126
:1007C000514502D90320BDE8F0872068696800F030
:1007D0000C00B0EB810FEFD1D8F80010404601F0CB
:1007E0000701B14207D90770006800F00700B04266
:1007F00001D00120E7E72878400705D52068E9689F
:1008000020F4E050084320602878000706D52068CF
:10081000296920F4604040EAC100206000F058F8E7
:100820002168084AC1F30311515CC84006490860B9
:1008300006480068FFF7D0FE0020C4E7003C0240F5
:1008400008380240343C00084800002040000020E6
:100850000F2202600C4A136803F00303436013681D
:1008600003F0F0038360136803F4E053C36012687D
:100870004FF4E05303EAD20202610448006800F03A
:10088000070008607047000008380240003C024042
:100890000448054900680968044AC1F38221515C93
:1008A000C84070474800002008380240443C000817
:1008B0000448054900680968044AC1F34231515CA3
:1008C000C84070474800002008380240443C0008F7
:1008D000154810B5006810F00C02144813D01449E4
:1008E000042A0FD0082A0ED10F4C241F2268236837
:1008F00002F03F025B0207D52068C0F38810A0FB1E
:10090000010106E0084610BD2168C1F38811A1FB72
:1009100000010023FFF7BEFC2168C1F30141491C1F
:100920004900B0FBF1F010BD083802400024F4008B
:1009300040787D012DE9F84F04006ED02078DFF873
:100940004C93C007A9F104054AD009F104000168DD
:10095000C1F38101012908D00068C0F38100022899
:100960000AD1D9F80000400206D52868800337D59F
:1009700060680028E1D033E06068B0F5803F10D0B7
:10098000B0F5A02F286810D020F4803028602868A7
:1009900020F4802028606068A8B1FFF7F5FD0646C6
:1009A0000DE0286840F48030F4E740F480202860AF
:1009B000F7E700BFFFF7E8FD801B642873D82868BD
:1009C0008003F7D50CE0FFF7DFFD064605E000BF2A
:1009D000FFF7DAFD801B6428F0D828688003F7D47D
:1009E0002078DFF8AC8280074FF0000A3ED5A74898
:1009F000001D016811F00C0F08D00068C0F38100E1
:100A000002280BD1D9F80000400207D428688007DB
:100A100016D5E068012800D112E033E1E068B8B1F2
:100A20000120C8F80000FFF7AFFD064605E000BF53
:100A3000FFF7AAFD801B0228C0D828688007F7D5D9
:100A40002868216920F0F80040EAC10028600DE024
:100A5000C8F800A0FFF798FD064604E0FFF794FDF4
:100A6000801B02281FD828688007F7D42078000749
:100A700022D5864F87486169703771B101210160C5
:100A8000FFF782FD064604E0FFF77EFD801B02288B
:100A900009D838688007F7D50EE0C0F800A0FFF746
:100AA00073FD064605E082E0FFF76EFD801B02281D
:100AB0007DD838688007F7D42078400768D5DFF8FC
:100AC000CCB100270BF13C0BDBF80000C0000BD4CD
:100AD000DBF8001041F08051CBF80010DBF800008B
:100AE000012700F0805000906B4E3068C00510D494
:100AF000306840F480703060FFF746FD009005E0FC
:100B0000FFF742FD0099401A022850D83068C0050E
:100B1000F6D55E4EA0686C3601280FD005283068E7
:100B200010D020F001003060306820F00400306008
:100B3000A068B8B1FFF728FD00900FE0306840F0E2
:100B40000100F4E740F004003060F7E7FFF71CFD18
:100B50000099411A41F28830814266D83068800796
:100B6000F4D50EE0FFF710FD009007E0FFF70CFD55
:100B70000099411A41F28830814256D83068800786
:100B8000F4D42FB1DBF8001021F08051CBF8001025
:100B9000A069C8B33D49091D0968C1F38101022953
:100BA0004AD00228504607D0C8F8600000E03CE078
:100BB000FFF7EAFC04463BE04746C8F86000FFF751
:100BC000E3FC064605E000BFFFF7DEFC801B0228C1
:100BD0002BD828688001F7D4D4E907010843A16A1B
:100BE0002E4A490802EB0141626A41EA8211084338
:100BF00094F82C1040EA0161C9F800100120386611
:100C0000FFF7C2FC044606E03EE000BFFFF7BCFC75
:100C1000001B022809D828688001F7D534E000BFFE
:100C2000FFF7B2FC001B022802D90320BDE8F88FB1
:100C300028688001F4D427E00128F7D0D9F8000013
:100C4000E26900F4800191421CD1226A00F03F0168
:100C5000914217D147F6C071626A0140B1EB821F21
:100C600010D1A26A4FF0FF3300F4403103EB52027F
:100C7000B1EB024F06D194F82C1000F07060B0EB8D
:100C8000016F01D00120D1E70020CFE704380240F6
:100C900000004742800E4742007000400000FFFF06
:100CA0007047704710B5040003D094F83D0010B1B0
:100CB00007E0012010BD002084F83C00204600F031
:100CC0001EF8022084F83D00211D206800F06EFA15
:100CD000012084F8460084F83E0084F83F0084F840
:100CE000400084F8410084F8420084F8430084F80E
:100CF000440084F8450084F83D00002010BD704792
:100D000090F83D10012901D001207047022180F8A0
:100D10003D100168CA6842F00102CA6000680E49CD
:100D200088420ED0B0F1804F0BD00C49884208D0D9
:100D30000B49884205D00B49884202D00A498842B3
:100D400004D1816801F00701062903D0016841F050
:100D500001010160002070470000014000040040D4
:100D600000080040000C00400040014070472DE9A1
:100D7000F04104460068C66805694FF00007A907FE
:100D800013D5B10711D5F91E016101202077206824
:100D900080698007204602D0FFF7E8FF04E000F0FA
:100DA0007EF8204600F07CF82777680716D5700794
:100DB00014D521686FF004000861022020772068B4
:100DC000806910F4407F204602D0FFF7CFFF04E097
:100DD00000F065F8204600F063F82777280715D55E
:100DE000300713D521686FF00800086104202077D0
:100DF0002068C0698007204602D0FFF7B7FF04E0F3
:100E000000F04DF8204600F04BF82777E80616D59D
:100E1000F00614D521686FF01000086108202077D3
:100E20002068C06910F4407F204602D0FFF79EFF83
:100E300004E000F034F8204600F032F82777E807A5
:100E400008D0F00706D021686FF001000861204645
:100E500000F028F8280608D5300606D521686FF07E
:100E6000800008612046FFF71BFF680608D5700662
:100E700006D521686FF040000861204600F01CF89C
:100E8000A8060AD5B00608D521686FF020000861D1
:100E90002046BDE8F041FFF704BFBDE8F081704790
:100EA0007047000000680349884201D1FFF772BB18
:100EB0007047000000000140704770B5040004D086
:100EC00094F84100002510B106E0012070BD84F8BF
:100ED0004050204600F024F8242084F84100206887
:100EE000C16821F40051C160204600F04DFA20682D
:100EF000016921F4904101612068416921F02A01D2
:100F000041612068C16841F40051C16065642020DE
:100F100084F8410084F842006563002070BD000041
:100F200010B586B0044614216846FFF7FDF9144950
:100F30002068884221D113480021026842F0100243
:100F40000260006800F0100005900E481438026836
:100F500042F001020260006800F0010005904FF4C9
:100F6000C06000900220CDE901010320039007201A
:100F7000049069460448FFF717FA06B010BD000058
:100F80000010014044380240000002402DE9F843BF
:100F9000044690F84100984616460D46202802D097
:100FA0000220BDE8F88385B17EB100206064212075
:100FB00084F84100FFF7E8FAA6848146E684A06839
:100FC0002027B0F5805F02D003E00120E9E7206927
:100FD00010B12E4600250EE000260CE080212046B0
:100FE00000F058FAA8B9C6B116F8010B216848609C
:100FF000E08C401EE084E08C4B464FF00002CDF8C0
:1010000000800028EAD14FF04001204600F042FA6B
:1010100040B184F841700320C3E735F8020BC0F3F8
:101020000800E3E784F841700020BAE7FEE700001B
:1010300010B5044A0021044801F02EF90349086163
:1010400010BD0000103C0008C9100008000000207E
:101050000D4808B5016841F004010160016801F024
:1010600004010091016841F080010160016801F014
:1010700080010091016841F001010160006800F009
:101080000100009008BD0000303802400C4810B547
:101090000A4901604FF4E1314160002181600C2276
:1010A000C160C0E904128161C161FFF706FF002839
:1010B00003D0BDE81040FFF775B910BD0010014026
:1010C000D0000020FEE7FEE702A000F01DFA00F0CD
:1010D000BDF8000068656C6C6F20776F726C640DF2
:1010E0000A00000010B54FF0E020006902F0DAFBC2
:1010F000012803D0BDE8104002F0E8B810BD0000A0
:1011000030B593B030216846FFF70EF914210CA8D2
:10111000FFF70AF91C480024016841F08051016082
:10112000006800F0805011901848016841F4404177
:1011300001600068022500F44040119001200390F6
:1011400010200490009506950820CDE90740642002
:10115000CDE9090504200B906846FFF7EBFB08B1C9
:1011600072B6FEE70F20CDE90C054FF48050CDE9B3
:101170000E4003210CA81094FFF7D0FA002801D0EC
:1011800072B6FEE713B030BD403802400070004038
:101190000248016841F470010160704788ED00E089
:1011A0000148FFF7E4BD000018010020F0B5026817
:1011B0001F4B204C204D214E4FF0804C984207D0C1
:1011C000604505D0A04203D0A84201D0B04203D16F
:1011D00022F070074A683A43984210D060450ED01A
:1011E000A0420CD0A8420AD0B04208D0144CA04271
:1011F00005D0144CA04202D0134CA04203D122F4DB
:101200004074CA6822434C6922F0800222438C68F1
:10121000C4620C688462984201D109690163016863
:1012200041F004010160012141610260F0BD000054
:10123000000001400004004000080040000C004095
:10124000004001400044014000480140A0B01BA004
:1012500000F05AF91F4901F11800CDE90001A0F191
:10126000080300F10802091F02A800F077FE194BDD
:1012700004460C3B1A1D02F1100118A800F0F0FD05
:1012800014B915A000F040F94FF0FF301790169BED
:1012900017AA18A902A8984710B918A000F034F9A5
:1012A000179801230090159C1A46642102A8A047B4
:1012B00010B91AA000F028F9FEE700005379737402
:1012C000656D205374617274696E672E2E2E2E2EFA
:1012D0000D0A00000C00002068616E646C65725F8E
:1012E0003120686173206265656E20696E73746178
:1012F0006E746961746564200D0A00006C65647326
:101300002068617665206265656E20726567697325
:101310007465726564200D0A000000006C6564311C
:1013200020686173206265656E20636F6E74726FF2
:101330006C6C65640D0A000001680C3151E8002FE7
:1013400022F4907241E80023002BF5D1016814319A
:1013500051E8002F22F0010241E80023002BF5D1D3
:10136000016B012909D101680C3151E8002F22F0ED
:10137000100241E80023002BF5D1202180F8421013
:10138000002101637047000070B5044600680169E0
:10139000E26821F44051114301612169A068E269CA
:1013A00008436169114308432168CA6849F20C6324
:1013B0009A430243CA6020684169A26921F44071DE
:1013C0001143416131492068884202D03049884246
:1013D00002D1FFF76DFA01E0FFF75AFAE269002344
:1013E000192164253226B2F5004F626828D0A0FB8F
:1013F0000101930F9200FEF74DFF0146B0FBF5F09F
:101400006FF01802504301EB800006EB0010B0FBB8
:10141000F5F000F0F002B1FBF5F002EB0012B1FBC9
:10142000F5F06FF01803584301EB800006EB001055
:10143000B0FBF5F000F00F0021681044886070BD2B
:10144000A0FB010192185B41FEF724FF0146B0FBAF
:10145000F5F00201B1FBF5F06FF01803584301EB12
:10146000800006EBC000B0FBF5F000F0F80002EBE6
:101470004002B1FBF5F0584301EB800006EBC000E1
:10148000B0FBF5F000F00700D6E7000000100140C7
:10149000001401402DE9F843984617460D460446CE
:1014A000089E24E0701C22D0FFF76EF8A0EB080025
:1014B000B0421AD8CEB12068C168490717D5802D2F
:1014C00015D0402D13D00168C94309070FD4016816
:1014D0000025406800902046FFF72EFF082060643A
:1014E00084F840500120BDE8F8830320FBE7206822
:1014F000006835EA000004D00020B842D2D00020B5
:10150000F1E70120F9E7FEE70FB4054B10B503A999
:10151000044A029800F01EF910BC5DF814FB0000AC
:10152000151A0008CC0000200907090E002804DB6A
:1015300000F1E02080F80014704700F00F0000F187
:10154000E02080F8141D70472DE9F041069C0F46FD
:10155000164698460A2C03D3641C31D01EA032E0F4
:10156000611C2DD000EB8405A868B0F1A63F29D0FE
:1015700027A0FFF7C9FF39462FA0FFF7C5FF314667
:1015800032A0FFF7C1FF08F0FF008046014634A0FB
:10159000FFF7BAFF214639A0FFF7B6FFA8684760FA
:1015A000A8688660A96881F80C80A86800F0AAFB8A
:1015B00000280CD035A0FFF7A7FF0120BDE8F0817F
:1015C0003DA000E046A0FFF79FFF0320F6E7BDE83F
:1015D000F0414EA0FFF798BF48414E444C45525F42
:1015E0004552524F525245534F55524345205F5F2B
:1015F0006576656E745F70726F6365737320696E74
:1016000064657820636865636B696E670D0A000026
:1016100053746172742050726F63657373696E677F
:10162000206174205F5F6576656E745F70726F63B2
:101630006573730D0A0000004379636C655F74691C
:101640006D65203D205B25645D000000626C696E65
:101650006B5F74696D6573203D205B25645D0000E0
:1016600070726F706F7274696F6E5F6F6E5F6F66AE
:1016700066203D205B25645D00000000696E6465A6
:1016800078203D205B25645D000000006576656E76
:10169000742070726F636573736564206661696C32
:1016A0006564206174205F5F6576656E745F70723B
:1016B0006F636573730D0A005F5F6576656E745FB7
:1016C00070726F63657373204C45445F4E4F545F77
:1016D000494E495449414C495A45440D0A000000BD
:1016E00048414E444C45525F4552524F5252455329
:1016F0004F55524345206174205F5F6576656E7477
:101700005F70726F636573730D0A00006576656EB6
:10171000742070726F636573736564206174205FF9
:101720005F6576656E745F70726F636573730D0AC3
:101730000000000002E008C8121F08C1002AFAD108
:1017400070477047002001E001C1121F002AFBD141
:10175000704700002DE9FF4F8DB09B460F460446B1
:10176000002606E025280BD05A460F999047641CA6
:10177000761C20780028F5D111B03046BDE8F08FF6
:101780000025A8460122984900E0054314F8013FCE
:10179000203B02FA03F00842F7D120782E2817D117
:1017A00014F8010F45F004052A280ED06FF02F021F
:1017B0002078A0F1300109290AD808EB880102EB52
:1017C000410100EB0108641CF2E757F8048B641C2C
:1017D00020786C280DD004DC4C2812D06A2811D156
:1017E00004E074280DD07A280CD10AE045F40015E5
:1017F00007E0617845F48015814202D1641C05F54B
:101800008015641C2078692844D008DC0028B3D0F7
:10181000582867D063280FD0642808D13AE0702890
:1018200065D0732812D075285AD078285AD05A46D5
:101830000F999047761CD5E017F8040B8DF800003F
:1018400000208DF80100E946012003E057F8049BD1
:101850004FF0FF3069074FF0000501D40AE06D1C1E
:1018600045450DDA8542FADB19F805100029F6D155
:1018700006E06D1C8542FCDB19F805100029F8D143
:101880002E4404E019F8010B5A460F9990476D1E3B
:10189000F8D2A7E00A200021CDE90801C5F30250E3
:1018A00002280CD001CFC117021E71F100020CDA20
:1018B0000023D0EB030063EB01012D2208E0FF1DA4
:1018C00027F00707F7E80201EEE72A0504D52B22E7
:1018D0008DF8282001223CE0EA073AD02022F7E7E1
:1018E0000A2000E010200021CDE9080107E01020C7
:1018F000002145F00405CDE908014FF00808C5F3C3
:101900000250022810D001CF00214FF0000A2A0710
:1019100020D52278702A0DD0DDE908C38CF0100C98
:101920005CEA030C0CD015E0FF1D27F00707F7E871
:101930000201EAE740228DF828204FF0010A0CE06E
:1019400050EA010306D030238DF828308DF8292085
:10195000022292462278582A04D024A20DF12009AE
:101960000B9209E026A2F9E7DDE90823FEF792FCD5
:101970000B9B9B5C09F8013D50EA0102F4D1ADEBF1
:10198000090020300890680701D44FF00108089939
:10199000884503DD0898A8EB000000E000208046A1
:1019A000002506E00AA85A46405D0F9990476D1C35
:1019B000761C5545F6DB04E030205A460F999047D7
:1019C000761CB8F10001A8F10108F5DC05E019F872
:1019D000010B5A460F999047761C0899481E0890AB
:1019E0000029F4DC641CC4E60928010030313233DC
:1019F000343536373839616263646566000000004B
:101A00003031323334353637383941424344454634
:101A10000000000013B54FF6FF730122694602482B
:101A2000FFF7B4FA00981CBDD000002010B50400E8
:101A300003D0FEF7A9FD206010BD032010BD0000FB
:101A40002DE9FF4104460020DDF828800090019038
:101A5000029003901D4616460F461CA0FFF754FD4A
:101A600022A0FFF751FD2078A8B128A0FFF74CFD78
:101A700042F21070874207D2B6F57A7F04D2032D66
:101A800002D2B8F10A0F0BD928A0FFF73DFD0420C0
:101A900004B0BDE8F08125A0FFF736FD0320F7E78D
:101AA00029A0FFF731FDCDE900768DF80850216CB3
:101AB000206B00224B6869469847040001D02AA099
:101AC00000E02FA0FFF720FD2046E1E7537461728C
:101AD000745F68616E646C65725F6C65645F636F90
:101AE0006E74726F6C200D0A00000000436865631D
:101AF000696E67207468652074617267657420730D
:101B0000746174756573200D0A0000004368656395
:101B1000696E672074686520696E707574207061E5
:101B200072616D6574657273200D0A0048414E4400
:101B30004C45525F4552524F525245534F555243B6
:101B400045200D0A0000000053656E64696E672031
:101B50006576656E7420746F204C45442071756500
:101B60007565200D0A00000048414E444C45525F07
:101B70004552524F524E4F4D454D4F52590D0A004E
:101B800053656E64696E67206576656E7420746F48
:101B9000204C4544207175657565207375636365D8
:101BA000737366756C6C7921210D0A0086B004464A
:101BB0004FF47A75284600F034FB12A0FFF7A4FC1E
:101BC000214616A0FFF7A0FC0A200CE01BA0FFF79F
:101BD0009BFC049800900DF1040C20469CE80E003C
:101BE000FFF7B2FC284600F01CFB1AA0FFF78CFCA4
:101BF000216C206B00228B6801A998470028F1D145
:101C0000E4E7000053746172745F68616E646C6530
:101C1000725F746872656164200D0A0070617261A0
:101C20006D657465727320696E2074687265616495
:101C3000203D205B25705D0D0A0000007468652062
:101C40006D65737361676520726563656976656448
:101C5000200D0A0053746172745F68616E646C6574
:101C6000725F74687265616420320D0A00000000C2
:101C70002DE9F04704004FF0000A0AD0207840B167
:101C8000D4E901608146207B022808D0012808D0D1
:101C900058B113A0FFF738FC0420BDE8F08777089F
:101CA00004E00320B6FBF0F700E0B708002011E0E5
:101CB00000250BE0A0690168012088472069BD422A
:101CC00001D2006800E0406880476D1CB542F1D346
:101CD00008F1010080464845EAD35046DDE70000A0
:101CE0004C45445F4552524F52504152414D45542C
:101CF000455220696E206C656420626C696E6B0DC4
:101D00000A0000002DE9F04704004FF0000A10D04F
:101D1000207870B1D4E901608146207B02280AD086
:101D200001280AD068B114A0FFF7EEFB0420BDE83B
:101D3000F0871BA0F8E7770804E00320B6FBF0F774
:101D400000E0B708002011E000250BE0A069016861
:101D5000012088472069BD4201D2006800E0406848
:101D600080476D1CB542F1D308F10100804648451B
:101D7000EAD35046DBE7000048414E444C45525FF1
:101D80004552524F52504152414D4554455220699F
:101D90006E206C656420626C696E6B0D0A00000039
:101DA00048414E444C45525F4552524F5250415269
:101DB000414D4554455220696E206C65645F626CEC
:101DC000696E6B5F68616E646C65720D0A0000007D
:101DD00030B450B1047844B142F21074A14204D23C
:101DE000B2F57A7F01D2032B02D330BC04207047B6
:101DF000C0E90112037330BCFFF73ABF38B504469F
:101E00000CA0FFF781FB7CB1206940688047A06986
:101E100001684FF4167088470025009560690168D5
:101E200068468847284638BD07A0FFF76DFB0420A9
:101E300038BD00006C656420696E6974207374613C
:101E40007274200D0A0000004C45445F4552524F09
:101E500052504152414D455445520D0A0000000078
:101E60002DE9F04104461D4616460F461AA0FFF71D
:101E70004BFBF4B1EFB1E6B1DDB1207801281ED003
:101E80001BA0FFF741FB1F482761E061C4E905562D
:101E90000025A560FF20656020732046FFF7AEFF98
:101EA000060011D018A0FFF72FFB2561A561656121
:101EB0000FE01AA0FFF728FB0420BDE8F0811DA069
:101EC000FFF722FB0320F8E7012020701EA0FFF798
:101ED0001BFB3046F1E700006C656420696E73748B
:101EE000204B69636B2D6F6666200D0A00000000B1
:101EF0006C656420696E73742073746172740D0A6A
:101F000000000000D11D00084C454420696E697432
:101F1000206661696C65640D0A0000004C45445FF1
:101F20004552524F52504152414D455445520D0A6F
:101F3000000000004C45445F4552524F52524553F9
:101F40004F555243450D0A004C454420696E697453
:101F50002066696E69736865640D0A002DE9FC47A7
:101F6000DDE90A9804461D4616460F462BA0FFF7EA
:101F7000CBFA002C2FD0002F2DD0002E2BD0002DEF
:101F800029D0B9F1000F26D0B8F1000F23D0207866
:101F9000012822D028A0FFF7B7FA2D482146C4E92E
:101FA00012902C482065C4E91065C4E90E872AA068
:101FB000FFF7AAFA04F134000026CDE90060A06C16
:101FC00023464FF48072056828A12C48A8470500D5
:101FD00009D02BA01EE036A000E03CA0FFF794FA49
:101FE0000420BDE8FC87206C102104F13002036856
:101FF0000A2098470A22354604F1080100204FF0D4
:10200000A633666041F82030401C9042FAD301208C
:10201000207034A0FFF778FA2846E2E748616E6442
:102020006C657220696E7374204B69636B2D6F66EB
:1020300066200D0A0000000048616E646C65722025
:10204000696E73742073746172740D0A000000006D
:10205000411A000835210008706172616D65746570
:102060007273203D205B25705D0D0A0068616E640F
:102070006C65725F7468726561640000AD1B000876
:1020800048414E444C45525F4552524F524E4F4D7F
:10209000454D4F52592061742070665F6F735F74B5
:1020A00068726561645F6372656174650D0A000042
:1020B00048414E444C45525F4552524F5250415256
:1020C000414D455445520D0A0000000048414E4420
:1020D0004C45525F4552524F525245534F55524311
:1020E000450D0A004C45442068616E646C657220A1
:1020F000696E69742066696E69736865640D0A00AB
:1021000010B502A0FFF700FA002010BD6C65642036
:102110006973206F66660D0A0000000010B502A00A
:10212000FFF7F2F9002010BD6C6564206973206F21
:102130006E0D0A002DE9F041044616460D4618A022
:10214000FFF7E2F900274DB146B1207830B1287889
:10215000012809D018A0FFF7D7F91EE01DA0FFF74E
:10216000D3F90420BDE8F08160680A2815D0606CBE
:102170000068804760680A2807D004EB800085600B
:10218000606830606068401C6060606C40688047D8
:1021900016A0FFF7B9F93846E4E70320E2E70000AC
:1021A00053746172745F6C65645F726567697374A0
:1021B0006572200D0A00000048414E444C45525FB4
:1021C0004552524F525245534F55524345200D0AE6
:1021D000000000004C45445F4552524F525041525E
:1021E000414D45544552200D0A0000006C65645F66
:1021F000726567697374657220537563636565738F
:10220000210D0A00FEF7CEF9FEF77AFFFEF720FF58
:10221000FEF73CFF00F012F8FEF70AFF00F020F88E
:10222000FEE710B5EFF3058111B16FF0050403E08F
:10223000002408B100F0A2FE204610BDEFF3058097
:1022400010B16FF0050070470448016811B14FF0FC
:10225000FF30704701210160002070479C00002082
:1022600010B5EFF3058010B16FF0050010BD084800
:102270000168012902D04FF0FF3010BD054A00214E
:1022800082F8141D0221016000F028FF002010BD1B
:102290009C0000200BE000E02DE9FF414FEA010324
:1022A0004FF00005EFF30581039549BB40B380274C
:1022B000182100244AB3166806B1344696691EB147
:1022C0003146761E382E02D21679F60703D000204A
:1022D00004B0BDE8F081566906B1B708D2F808C06D
:1022E000BCF1000F0DD0D5685C2D18D312693AB13E
:1022F00036B18DE806103A46214601F0A8FA03905F
:102300000DE0D6685EB912694AB903AACDE9001298
:10231000BAB2214601F06EFA012800D00395039865
:10232000D6E710B500F026FD002010BD10B500F076
:1023300041FD012010BD10B500F020FE002010BDB1
:1023400010B51446002200F0D7FF10B12060002025
:1023500010BD032010BD10B518B100F0C1FD002064
:1023600010BD032010BD10B520B119B101F06CF9FA
:10237000002010BD032010BD10B528B121B10023ED
:1023800001F052F8002010BD032010BD10B5044626
:1023900002A0FFF7B9F80020206010BD6765742027
:1023A00074696D65206E6F772074696D657A6572EA
:1023B0006F0D0A0010B5044600F0E0FD214602A0B2
:1023C000FFF7A2F8002010BD64656C6179205B25E1
:1023D000645D6D732066696E69736865640D0A00DB
:1023E0002DE9F041134C0F460546E6682068001DB4
:1023F00000F065FC681C07D137B12168BDE8F041E9
:102400000D48091D00F0AABC20683544B54245605E
:10241000216805D2A06BBDE8F041091D00F086BC23
:10242000606B091D00F082FCA06A854200D2A562A3
:10243000BDE8F0814C000020500600202DE9F0415D
:10244000054600F097FC2D4CA068401CA060206859
:102450002B4F10B1606930B32BE02560A0680128D4
:1024600027D1002606EB860007EB800000F050FC29
:10247000761C382EF6D3234800F04AFC214814304D
:1024800000F046FC1F48283000F042FC1D483C305C
:1024900000F03EFC1B48503000F03AFC19486063E5
:1024A0001430A06305E02068E96AC06A884200D859
:1024B0002560606A401C60626864E86A216988423D
:1024C00000D9206100EB800007EB8000291D00F09F
:1024D00045FC00F06FFC606900280CD02068E96AB8
:1024E000C06A884207D208494FF080500860BFF3A5
:1024F0004F8FBFF36F8FBDE8F08100004C000020CC
:10250000A00100200006002004ED00E038B500F036
:1025100031FC104C2068C8B90F4800F0F9FB0E4898
:10252000143000F0F5FB0C48E060143020610A4BD9
:102530000020F03B009003F1500210210A2000F02F
:10254000FCFE206010B105A100F0B6FCBDE83840EB
:1025500000F030BC8800002054070020546D7251F8
:102560000000000030B4026C0B46002A0BD0C1689A
:102570001144C1608468A14201D30168C16030BCCC
:102580001846FDF7B8BE30BC70472DE9F041856BA9
:10259000174604460026026C82B1C7B1E068FDF719
:1025A000AAFEE168206C091AE1602268914202D219
:1025B000A168081AE060022F16D017E02068A8B9B9
:1025C000A06801F0E7F906460020A0600EE0606810
:1025D000FDF791FE216C606808446060A168884244
:1025E00004D32068606001E005B16D1E6D1CA56319
:1025F0003046BDE8F08110B5044690F8590058B156
:1026000001280CD002280FD0502080F31188BFF38E
:102610004F8FBFF36F8FFEE7206B00F0DFFB20468C
:10262000BDE8104000F0DABB10BD000010484FF4C8
:102630007051420706D0C01D0D4920F00700411A15
:10264000C1F570510B4A00230144C2E90003083967
:10265000183A21F0070111604B600B600B1AC0E9BA
:10266000001393604FF000405360506170470000CA
:10267000340E0020B8000020144E154CA6F29C47E2
:102680004FF08058DFF84C9012E000BF00F072FB72
:10269000F068C568281D00F012FBA068401EA0600D
:1026A0006068401E606000F085FB2846FFF7A3FFCE
:1026B00060680028EAD138680128F9D9C9F8008093
:1026C000BFF34F8FBFF36F8FF2E700003C0600208F
:1026D0004C00002004ED00E070B51D46049C51B193
:1026E000C4F80020C4E90F010121204600F058FE83
:1026F00084F84C5070BD2460F4E700002DE9F05FD1
:102700008846DDE90B941546834691009A460A9E59
:10271000A522206BFDF701FE6FF00301206B01EB9A
:102720008501084420F00707780707D0502080F380
:102730001188BFF34F8FBFF36F8FFEE70025B8F10D
:10274000000F0FD05FF00000221818F8001082F878
:10275000341018F8001011B1401C1028F4D384F87C
:10276000435001E084F83450382E00D33726E66217
:10277000C4E91365201D00F0D6FA04F1180000F03A
:10278000D2FA2461C6F138006462A061656584F8FC
:10279000585052465946384600F05AFA2060B9F16E
:1027A000000F01D0C9F80040BDE8F09F30B51149D5
:1027B00000E011460A688242FBD34B685C188442F1
:1027C00003D1406818444860084643681C18944286
:1027D00009D1084C183C2468A24209D052681A4416
:1027E00042600A6812680260814200D0086030BD11
:1027F0000460F9E7B800002070B5002441600B4D7B
:102800000061914206D8D11A8269914206D2011D17
:10281000286907E09A4203D2994201D3012403E0D8
:10282000011DE86800F082FA204670BD8800002093
:1028300010B5044600F09EFAA06B28B15FF00004CA
:1028400000F0B8FA204610BD0124F9E730B589B090
:102850003C4D6EE00498002806DADDE90601059A91
:1028600090470498002864DB069C606910B1201D25
:1028700000F025FA03A800F0D7F8024604980A28C9
:1028800057D2DFE800F00505052D334A05052D3345
:1028900094F8280040F0010084F828000599A06908
:1028A000059B01442046FFF7A7FF68B3216A204635
:1028B000884794F8280040073BD5002000900598F1
:1028C000A169002342181946204601F06DF9D8B9D4
:1028D000502080F31188BFF34F8FBFF36F8FFEE757
:1028E00014F8280F20F00100207022E094F828004E
:1028F00040F0010084F828000598A06128B18118F3
:1029000013462046FFF778FF13E0502080F311882C
:10291000BFF34F8FBFF36F8FFEE794F82800810756
:1029200003D4204600F05AFA03E020F0010084F8B6
:102930002800002204A9286800F086FE002889D11A
:1029400009B030BD880000202DE9FC410F46054646
:1029500000F008FC01A800F067F80446019818B1DF
:1029600001F090F8BDE8FC81254EAFB130690068F8
:10297000D0B30027291B3A46306800F0DDFA01F099
:1029800081F80028EED11F494FF080500860BFF356
:102990004F8FBFF36F8FE5E7A542EBD801F072F8D8
:1029A000F0682746C068C468201D00F088F994F8D4
:1029B0002800410719D5A0692B4641193A462046FF
:1029C000FFF71AFFA8B100200346014600902A46EF
:1029D000204601F0E9F860B9502080F31188BFF378
:1029E0004F8FBFF36F8FFEE707E020F0010084F800
:1029F0002800216A20468847B4E70127BAE700008B
:102A00008800002004ED00E00648416B096829B108
:102A1000416BC968C9684968816270474FF0FF31EE
:102A2000FAE700004C00002070B5054600F048FFB2
:102A3000064E0446B068844203D200F009F8012033
:102A400000E0002028602046B46070BD88000020AF
:102A5000F8B5194D20E0C068C4680668201D00F074
:102A60002EF9216A2046884794F82800400713D59C
:102A7000A0693044B04206D924616060211DE86835
:102A800000F054F908E00020034601460090324669
:102A9000204601F089F838B1E86801680029DAD1E8
:102AA0002969C5E90310F8BD502080F31188BFF3F0
:102AB0004F8FBFF36F8FFEE7880000200848406803
:102AC000401C4FF0500080F3118804D0BFF34F8FAB
:102AD000BFF36F8FFEE7BFF34F8FBFF36F8FFEE73C
:102AE000C0000020074CE068016841B1C0680021C7
:102AF000D0F80000FFF728FFFFF7A8FEF3E7012159
:102B00000020F7E7880000202DE9F041044600F09E
:102B100031F994F9455004F1240609E0606A48B19E
:102B2000304600F077FF08B100F09EFA6D1E6DB2DE
:102B3000002DF3DC4FF0FF3684F8456000F03AF9E1
:102B400000F018F994F9445004F1100709E02069E5
:102B500048B1384600F05EFF08B100F085FA6D1EFE
:102B60006DB2002DF3DC84F84460BDE8F04100F064
:102B700021B900002DE9F0410546002700F0F2FAE6
:102B8000324E306808B9FFF751FD706905424ED1E9
:102B9000C5B3083568070ED005F00700C0F108007E
:102BA0000544680707D0502080F31188BFF34F8F8A
:102BB000BFF36F8FFEE72DB37068854237D8234887
:102BC000183001460C6801E020460C466168A942B5
:102BD00002D221680029F7D131688C4227D00768DA
:102BE0002168016060680837411B10290FD96019FE
:102BF000420708D0502080F31188BFF34F8FBFF3F6
:102C00006F8FFEE713E041606560FFF7CFFD6168FD
:102C10007068401A7060B268904200D2B06070690B
:102C200001430020C4E90001F068401CF06000F09E
:102C300029FF780707D0502080F31188BFF34F8F0A
:102C4000BFF36F8FFEE73846BDE8F081A00000209B
:102C500010B5031F4FF080741C601B1F21F0010191
:102C60001960191F044B0B6014390A60091F6FF0BB
:102C7000020244380A6010BDBD2A00081CB51821A4
:102C8000059ACDE900124FF4007204A100F0B2FDE4
:102C9000012801D003201CBD00201CBD6C65645FB1
:102CA00068616E646C65725F3100000010B50024CD
:102CB00018B100F089F9204610BD032010BDD0E9FD
:102CC000013201699A60D0E901235A604A68824260
:102CD00001D182684A60002202610868401E0860D3
:102CE00008687047034B036003F15C0008608020B4
:102CF000106070477C070020044B036003F15C0008
:102D000008604FF48070106070470000D809002000
:102D100000F108014FF0FF32C0E90112C16001610A
:102D200000210160704700210161704730B50B68D8
:102D30005A1C02D000F1080202E0026904E02246B7
:102D4000546825689D42FAD953684B6099608A603F
:102D5000516008610168491C016030BD42684A60E9
:102D600093688B6093685960916008610168491CA1
:102D700001607047502080F31188BFF34F8FBFF37D
:102D80006F8F0A494868401C486001280CD10848E8
:102D9000006810F0FF0F07D0502080F31188BFF3B8
:102DA0004F8FBFF36F8FFEE770470000C000002019
:102DB00004ED00E00849486828B1401E486001D190
:102DC00080F311887047502080F31188BFF34F8F34
:102DD000BFF36F8FFEE70000C000002070B5002831
:102DE0002AD0164DA0F1080460686969084207D12D
:102DF000502080F31188BFF34F8FBFF36F8FFEE732
:102E000022683AB1502080F31188BFF34F8FBFF38F
:102E10006F8FFEE78843606000F0A4F9606869681E
:102E2000084468602046FFF7C1FC2869401C2861FF
:102E3000BDE8704000F026BE70BD0000A00000207C
:102E40004FF0E02000210161816105494FF47A7261
:102E50000968B1FBF2F1491E416107210161704728
:102E60004800002010B5FDF7FFF9114910280ED3D6
:102E700000F1E02090F8F0030A78904207D2502049
:102E800080F31188BFF34F8FBFF36F8FFEE70948C0
:102E90000068896800F4E060884207D9502080F318
:102EA0001188BFF34F8FBFF36F8FFEE710BD000097
:102EB000C00000200CED00E010B5084B002200BF60
:102EC00053F832401CB1521C082AF9D310BD43F804
:102ED000321003EBC201486010BD00006001002009
:102EE00010B504000AD000F013F894F8460000284A
:102EF0000CD12046BDE81040FFF770BF502080F392
:102F00001188BFF34F8FBFF36F8FFEE710BD000036
:102F1000084A002102EBC1035B68834206D100200E
:102F200042F8310002EBC10148607047491C082992
:102F3000F0D370476001002070B515460E46044678
:102F4000FFF718FF94F944100020491C01D184F8C0
:102F5000440094F94510491C01D184F84500FFF75D
:102F600029FFA06B28B92A46314604F1240000F05D
:102F700099F82046BDE87040FFF7C6BD10B50200C5
:102F800014D00F48006B38B1502080F31188BFF384
:102F90004F8FBFF36F8FFEE700F0E4F8002110467B
:102FA000FFF71EFA00F06EFD002807D105494FF02B
:102FB00080500860BFF34F8FBFF36F8F10BD0000CC
:102FC0004C00002004ED00E070B50546FFF7D2FE8E
:102FD0001E4C05B92568281DFFF771FEA86A18B1B7
:102FE00005F11800FFF76BFE606A401C6062206804
:102FF000854207D1291D1648FFF7B0FE6068401CC6
:10300000606007E0A068401EA0602846FFF7F3FA62
:10301000FFF7FAFCFFF7CEFE6069002814D02068A5
:10302000854211D1206B38B1502080F31188BFF355
:103030004F8FBFF36F8FFEE706494FF08050086057
:10304000BFF34F8FBFF36F8F70BD00004C000020A7
:103050003C06002004ED00E002490A6A0260C968EB
:10306000416070474C00002001490120C861704751
:103070004C00002010B50C4650B1094909681831C0
:10308000FFF754FE2046BDE810400121FFF7A8B924
:10309000502080F31188BFF34F8FBFF36F8FFEE78F
:1030A0004C00002070B514460D4668B10A49096805
:1030B0001831FFF753FE0CB14FF0FF35214628467B
:1030C000BDE87040FFF78CB9502080F31188BFF342
:1030D0004F8FBFF36F8FFEE74C00002030B587B0F5
:1030E0000024039405AA04A903A80494FFF7FAFD99
:1030F000DDE903010094CDE90110002315A1174873
:10310000059A00F0A4FB164D0028E8621FD000F0DD
:103110001BFD012809D0401C19D1502080F31188D3
:10312000BFF34F8FBFF36F8FFEE7502080F31188FE
:10313000BFF34F8FBFF36F8F4FF0FF30A8620120B6
:103140006861EC6007B0BDE8304000F045B807B0FA
:1031500030BD000049444C450000000079260008BD
:103160004C0000200248016B491C016370470000BD
:103170004C000020164810B5016B11B10121C1614E
:1031800010BD0021C1610169124A01E0B9B1491EB7
:1031900001EB810352F82330002BF7D001EB8103C0
:1031A00002EB830202F1080453685B685360A34298
:1031B00001D15B685360DA680260016110BD502084
:1031C00080F31188BFF34F8FBFF36F8FFEE70000CE
:1031D0004C000020A00100201CB537480168374A88
:1031E000914207D1502080F31188BFF34F8FBFF376
:1031F0006F8FFEE700683149491E884207D1502091
:1032000080F31188BFF34F8FBFF36F8FFEE72C4918
:1032100008780190FF20087008788DF800009DF86C
:1032200000009DF8002000F0F000904207D05020F0
:1032300080F31188BFF34F8FBFF36F8FFEE79DF8C8
:103240000000204C00F0500020700720A06005E036
:103250009DF8002052008DF80020401E9DF80020AF
:103260001206F5D4A060032807D0502080F31188FF
:10327000BFF34F8FBFF36F8FFEE74FF44070A06036
:10328000019808700C482030016841F47001016019
:10329000016841F070410160FFF7D2FD00206060DD
:1032A000FCF7AAFF0848016841F040410160FCF7C3
:1032B0008FFF00201CBD000000ED00E071C20F4137
:1032C00000E400E0C000002034EF00E010B5502022
:1032D00080F31188BFF34F8FBFF36F8F00F0F6FAC2
:1032E00018B104494FF080500860002080F3118825
:1032F00010BD000004ED00E0F8B517460E460500CD
:1033000013D005FB06F05030FFF734FC04000AD060
:10331000002084F8460004F150023B46314628461E
:103320000094FFF7D9F92046F8BD502080F31188AA
:10333000BFF34F8FBFF36F8FFEE738B5049D18B111
:1033400053B1CAB181B120E0502080F31188BFF39E
:103350004F8FBFF36F8FFEE7502080F31188BFF3CC
:103360004F8FBFF36F8FFEE7502080F31188BFF3BC
:103370004F8FBFF36F8FFEE739B1502080F3118874
:10338000BFF34F8FBFF36F8FFEE750241C4601231E
:1033900084F846302B460094FFF79EF9204638BD4E
:1033A00070B50D46040025D0FFF7E4FCD4E90F20EA
:1033B000216802FB0011A1600021A1632168616006
:1033C0000A46D4E90F01401E00FB0121E1602146BD
:1033D0004FF0FF3001F8440F487004F110008DB138
:1033E000FFF796FC04F12400FFF792FCFFF7E2FCE4
:1033F000012070BD502080F31188BFF34F8FBFF3C1
:103400006F8FFEE721690029F0D000F003FB002850
:10341000ECD004494FF080500860BFF34F8FBFF3EA
:103420006F8FE3E704ED00E02DE9FF4782B01D4612
:103430008A464FF00008040003D0BAF1000F08D00C
:1034400011E0502080F31188BFF34F8FBFF36F8FCF
:10345000FEE7206C38B1502080F31188BFF34F8F06
:10346000BFF36F8FFEE7022D0AD1E06B012807D072
:10347000502080F31188BFF34F8FBFF36F8FFEE7AB
:1034800000F010FA3F4F4FF000094FF0805648B956
:10349000049838B1502080F31188BFF34F8FBFF3E9
:1034A0006F8FFEE7FFF766FCA06BE16B884207D3E6
:1034B000022D05D00498D0B1B8F1000F1AD01EE04B
:1034C0002A4651462046FFF760F8616A19B104F1B7
:1034D000240000F09FFA20B13E60BFF34F8FBFF38E
:1034E0006F8FFFF767FC012006B0BDE8F087FFF79C
:1034F00061FC22E06846FFF7AFFD4FF00108FFF7DF
:1035000059FCFFF72FFEFFF735FC94F94400401CEF
:1035100001D184F8449094F94500401C01D184F80D
:103520004590FFF747FC04A9684600F029F930B13F
:103530002046FFF7E9FA00F0A5FA0020D4E7FFF7EC
:1035400019FCA06BE16B884213D1FFF733FC04F147
:1035500010000499FFF78EFD2046FFF7D5FA00F022
:1035600091FA00289ED13E60BFF34F8FBFF36F8F5B
:1035700098E7FFF71FFC2046FFF7C6FA00F082FA33
:1035800090E7000004ED00E02DE9F0471F4690466B
:103590008946040003D0B9F1000F08D011E0502093
:1035A00080F31188BFF34F8FBFF36F8FFEE7206C5E
:1035B00038B1502080F31188BFF34F8FBFF36F8F66
:1035C000FEE7022F0AD1E06B012807D0502080F3DC
:1035D0001188BFF34F8FBFF36F8FFEE7FFF742FCF9
:1035E0005020EFF3118680F31188BFF34F8FBFF3A4
:1035F0006F8FA06BE16B884206D3022F04D00020AE
:1036000086F31188BDE8F08794F94550A06B3A46DF
:1036100049462046FEF7B9FF681C04D06D1C84F8AB
:1036200045500120ECE7606A0028FAD004F124003C
:1036300000F0F0F90028F4D0B8F1000FF1D001212A
:10364000C8F80010EDE700002DE9F747002683B029
:103650008A46040003D0BAF1000F08D011E05020D0
:1036600080F31188BFF34F8FBFF36F8FFEE7206C9D
:1036700038B1502080F31188BFF34F8FBFF36F8FA5
:10368000FEE700F00FF9DFF8F4804FF000094FF08B
:10369000805748B9059838B1502080F31188BFF39E
:1036A0004F8FBFF36F8FFEE7FFF764FBA56BC5B1CC
:1036B00051462046FEF756FF6D1EA563206950B1A6
:1036C00004F1100000F0A6F928B1C8F80070BFF3AB
:1036D0004F8FBFF36F8FFFF76DFB012006B0BDE882
:1036E000F087059808B11EB106E0FFF763FB27E0FD
:1036F0006846FFF7B1FC0126FFF75CFBFFF732FDE0
:10370000FFF738FB94F94400401C01D184F8449041
:1037100094F94500401C01D184F84590FFF74AFB1D
:1037200005A9684600F02CF8002820460AD0FFF7CB
:10373000EBF900F0A7F92046FFF77AF80028B3D09C
:103740000020CBE7FFF774F890B104F1240005994D
:10375000FFF790FC2046FFF7D7F900F093F9002817
:10376000A2D1C8F80070BFF34F8FBFF36F8F9BE7F4
:103770002046FFF7C9F900F085F995E704ED00E070
:103780002DE9F0410C46050011D0C4B1FFF7F2FA63
:10379000174BDA686E682068911B471C17D02F689A
:1037A0001B6A9F4219D0964217D8012410E050207E
:1037B00080F31188BFF34F8FBFF36F8FFEE7502068
:1037C00080F31188BFF34F8FBFF36F8FFEE70024A4
:1037D000FFF7F0FA2046BDE8F081884205D9401A8B
:1037E00020602846FFF738FCF1E700202060DCE786
:1037F0004C0000202DE9FF5F8346DDE90E879946E6
:1038000016468A469000FFF7B5F905001CD05C20EB
:10381000FFF7B0F9040014D00020256384F85900A4
:10382000CDE90240CDE900874B4632465146584625
:10383000FEF764FF2046FEF701FE012004B0BDE85C
:10384000F09F2846FFF7CAFA4FF0FF30F6E7F0B5D1
:1038500085B0DDE90B640A9DA6B1DCB15C27009759
:103860002663022684F85960002604AFCDE902469B
:10387000CDE90057FEF742FF2046FEF7DFFD049832
:1038800005B0F0BD502080F31188BFF34F8FBFF318
:103890006F8FFEE7502080F31188BFF34F8FBFF387
:1038A0006F8FFEE70548416919B1006B18B1002020
:1038B0007047012070470220704700004C00002034
:1038C0000148C068704700004C0000202DE9F0411D
:1038D0002E4C0027206B28B1A069401CA0613846FF
:1038E000BDE8F081E668761CE66013D1606B006885
:1038F00038B1502080F31188BFF34F8FBFF36F8F23
:10390000FEE7606BA16B6163A063206A401C2062CC
:10391000FFF77AF8A06ADFF87880864209D3606BF7
:103920000068A0B1606BC068C5686868864211D243
:10393000A0622068C06A00EB800158F821000128CD
:1039400000D90127E0690028C9D00127C7E74FF057
:10395000FF30EDE7281DFFF7B2F9A86A18B105F1AD
:103960001800FFF7ACF9E86A2169884200D92061A4
:1039700000EB800108EB8100291DFFF7EFF9E86AF1
:103980002168C96A8842CAD30127C8E74C000020D1
:10399000A001002070B504004FF0000133D01B4D92
:1039A0002868844207D0502080F31188BFF34F8FDE
:1039B000BFF36F8FFEE7206D38B1401E2065E36CCA
:1039C000E26A9A421FD040B11DE0502080F3118876
:1039D000BFF34F8FBFF36F8FFEE7201DFFF76FF927
:1039E000E06CE062C0F13800A061E06A29698842B9
:1039F00000D92861064900EB800001EB8000211D01
:103A0000FFF7ACF90121084670BD00004C00002012
:103A1000A001002070B5C068C46854B104F118005A
:103A20000646FFF74CF9144D286B50B13146134848
:103A300015E0502080F31188BFF34F8FBFF36F8FD5
:103A4000FEE7201DFFF73BF9E06A2969884200D9AB
:103A500028610B4900EB800001EB8000211DFFF77E
:103A60007DF9E06A2968C96A884202D90120E861C3
:103A700070BD002070BD00004C0000202806002012
:103A8000A00100202DE9F0472C4D00242746286B8B
:103A900038B1FFF76FF9286B401E2863286B40B1DF
:103AA00046E0502080F31188BFF34F8FBFF36F8F34
:103AB000FEE7A968224E0120D1B3A6F591698046A0
:103AC0003068E0B1F068C46804F11800FFF7F7F857
:103AD000201DFFF7F4F8E06A2969884200D92861BF
:103AE00000EB800109EB8100211DFFF737F9E06A47
:103AF0002968C96A8842E3D3C5F81C80E0E70CB1A5
:103B0000FEF782FFAC694CB14FEA0806FFF7DEFE14
:103B100000B1EE61641EF9D10020A861E86938B1F6
:103B20000849012738070860BFF34F8FBFF36F8F35
:103B3000FFF740F93846BDE8F08700004C00002050
:103B40002806002004ED00E010B586B0FEF7DEFC8C
:103B5000114C2068B8B100200390049005AA04A974
:103B600003A8FFF7C9F8DDE9032102208DE807006B
:103B700000230AA10B48059AFFF769FE606010B1A7
:103B800006B0012010BD502080F31188BFF34F8F85
:103B9000BFF36F8FFEE7000088000020546D722095
:103BA00053766300E52A00082DE9FF411E461346BF
:103BB00002000A9D4FF0000016D0144C2768002F19
:103BC0000FD0CDE900130292062917DAFFF76AFE3B
:103BD00002284FF000030FD0002269462068FFF74B
:103BE00023FC04B0BDE8F081502080F31188BFF3BE
:103BF0004F8FBFF36F8FFEE72A46EEE70023324672
:103C000069463846FFF7C0FCEBE70000880000205B
:103C10004C3C000800000000000000000000000014
:103C2000000000000002000018000000000000007A
:103C3000000000000000000000000000010203047A
:103C400006070809000000000102030464656661BC
:103C5000756C745461736B00783C000800000020A0
:103C6000D000000034170008483D0008D0000020B4
:103C7000684D0000441700088D230008B523000894
:103C8000372300082D1A0008000000001D2100083D
:103C900001210008232300082D2300087D2C0008A3
:103CA000AD2C000841230008792300086723000891
:103CB0005723000801000000100000000000000071
:103CC0000024F400000000000000000000000000DC
:103CD00000000000000000000000000000000000E4
:103CE00000000000000000000000000000000000D4
:103CF00000000000000000000000000000000000C4
:103D000000000000000000000000000000000000B3
:103D100000000000000000000000000000000000A3
:103D20000000000000000000000000000000000093
:103D3000000000000000000000000000AAAAAAAADB
:083D400000000000000000007B
:040000050800019955
:00000001FF
